:100000000C94C3090C94EE090C94EE090C94EE09BF
:100010000C94EE090C94EE090C94EE090C94EE0984
:100020000C94EE090C94EE090C9496780C941077CD
:100030000C94EE090C94EE090C94EE090C94EE0964
:100040000C94EE090C9422610C94EE090C94EE09C8
:100050000C94EE090C94EE090C94466A0C94D97534
:100060000C94EE090C94EE090C94EE090C94EE0934
:100070000C94EE090C94EE090C94EE090C94EE0924
:100080000C94EE090C94EE090C94EE090C94EE0914
:100090000C94EE090C94EE09084AD73B3BCE016E56
:1000A00084BCBFFDC12F3D6C74319ABD56833DDACF
:1000B0003D00C77F11BED9E4BB4C3E916BAAAABEDE
:1000C000000000803F05A84CCDB2D44EB93836A907
:1000D000020C50B9918688083CA6AAAA2ABE000044
:1000E00000803F6563686F3A0043616E6E6F7420F5
:1000F000656E746572207375626469723A00457248
:10010000726F723A006572726F72207772697469E9
:100110006E6720746F2066696C65004E6F742053A3
:1001200044207072696E74696E67002F005344201A
:100130007072696E74696E67206279746520002E32
:100140000044656C6574696F6E206661696C6564F6
:100150002C2046696C653A200046696C6520646510
:100160006C657465643A002E006F70656E20666180
:10017000696C65642C2046696C653A200057726989
:1001800074696E6720746F2066696C653A20002E72
:10019000006F70656E206661696C65642C2046692D
:1001A0006C653A20002E006F70656E206661696C88
:1001B00065642C2046696C653A200046696C6520B0
:1001C00073656C6563746564002053697A653A00F1
:1001D00046696C65206F70656E65643A002E006F2D
:1001E00070656E206661696C65642C2046696C657B
:1001F0003A2000776F726B446972206F70656E20D1
:100200006661696C656400776F726B446972206F18
:1002100070656E206661696C65640053442063619B
:100220007264206F6B006F70656E526F6F74206622
:1002300061696C656400766F6C756D652E696E69B9
:1002400074206661696C656400534420696E69744A
:10025000206661696C004572726F723A0050726973
:100260006E7465722068616C7465642E206B696CB5
:100270006C28292063616C6C6564202121006F6B00
:1002800000526573656E643A006563686F3A0022D8
:1002900000556E6B6E6F776E20636F6D6D616E646F
:1002A0003A22007A5F6D696E3A00795F6D696E3A45
:1002B00000785F6D696E3A005A3A00593A0020435F
:1002C0006F756E7420583A00453A005A3A00593A10
:1002D00000583A004649524D574152455F4E414DF4
:1002E000453A4D61726C696E2056313B20537072F5
:1002F000696E7465722F6772626C206D61736875C8
:100300007020666F722067656E36204649524D57E1
:100310004152455F55524C3A687474703A2F2F77AA
:1003200077772E6D656E64656C2D70617274732EB7
:10033000636F6D2050524F544F434F4C5F564552A0
:1003400053494F4E3A312E30204D414348494E4596
:100350005F545950453A4D656E64656C204558545C
:1003600052554445525F434F554E543A310A00208E
:10037000423A0020453A00543A0020573A002045BE
:100380003A00543A0020403A0020423A006F6B2075
:10039000543A00456E642066696C65206C6973741C
:1003A00000426567696E2066696C65206C697374CC
:1003B0000053657474696E67732053746F7265645B
:1003C0000053746F7265642073657474696E67732B
:1003D000207265747265697665643A002044002075
:1003E00049002020204D3330312050005049442016
:1003F00073657474696E67733A00204500205A0073
:1004000020580020420020540020204D323035205A
:100410005300416476616E63656420766172696140
:10042000626C65733A20533D4D696E206665656464
:100430007261746520286D6D2F73292C20543D4DF9
:10044000696E2074726176656C20666565647261A0
:10045000746520286D6D2F73292C20423D6D696EC7
:10046000696D756D207365676D656E742074696D57
:100470006520286D73292C20583D6D6178696D7554
:100480006D207859206A65726B20286D6D2F732955
:100490002C20205A3D6D6178696D756D205A206A57
:1004A00065726B20286D6D2F732900205400202069
:1004B0004D323034205300416363656C6572617462
:1004C000696F6E3A20533D616363656C6572617458
:1004D000696F6E2C20543D72657472616374206183
:1004E0006363656C65726174696F6E0020450020FE
:1004F0005A0020590020204D3230312058004D61E3
:1005000078696D756D20416363656C6572617469AE
:100510006F6E20286D6D2F7332293A002045002020
:100520005A0020590020204D3230332058004D61B0
:1005300078696D756D206665656472617465732098
:10054000286D6D2F73293A00204500205A0020594C
:100550000020204D3932205800537465707320708C
:10056000657220756E69743A00446F6E6520707212
:10057000696E74696E672066696C65006F6B004E0A
:100580006F204C696E65204E756D626572207769CB
:10059000746820636865636B73756D2C204C6173A0
:1005A00074204C696E653A004E6F20436865636B3A
:1005B00073756D2077697468206C696E65206E753F
:1005C0006D6265722C204C617374204C696E653AC3
:1005D00000636865636B73756D206D69736D61741D
:1005E00063682C204C617374204C696E653A004C32
:1005F000696E65204E756D626572206973206E6F3D
:1006000074204C617374204C696E65204E756D6268
:1006100065722B312C204C617374204C696E653AE5
:1006200000446F6E6520736176696E672066696C41
:10063000652E006F6B002020506C616E6E657242FB
:10064000756666657242797465733A200020467259
:100650006565204D656D6F72793A200043616C6568
:100660006220436F747465722026204A6572656D3E
:10067000792047616C6C65676F7300207C20417541
:1006800074686F723A20005072696E7472626F748F
:1006900020506C75732B00204C617374205570646E
:1006A000617465643A2000312E302E30205243327E
:1006B000004D61726C696E3A200020536F6674774A
:1006C00061726520526573657400205761746368B8
:1006D000646F67205265736574002042726F776E95
:1006E000206F7574205265736574002045787465B9
:1006F000726E616C20526573657400506F7765721D
:100700005570007374617274002200656E717565B6
:10071000696E672022006563686F3A0020746F6F0E
:10072000206C6F6E6720657874727573696F6E20C8
:1007300070726576656E7465640020636F6C64200A
:10074000657874727573696F6E2070726576656E08
:10075000746564007C3C3E5E2B3D3F2F5B5D3B2C13
:100760002A225C0024F404D9201BC40C5C0E9804DB
:10077000C4095F0265077101F405F900FB04B300C9
:1007800048048700C103690058035500030345006E
:10079000BE023A008402310053022A0029022500D9
:1007A00004022000E4011C00C8011900AF01170079
:1007B0009801140084011300710110006101100000
:1007C00051010E0043010D0036010B002B010B00FF
:1007D00020010B00150109000C01090003010800AC
:1007E000FB000800F3000800EB000700E40006002F
:1007F000DE000600D8000600D2000600CC0005008E
:10080000C7000500C2000500BD000400B9000400D7
:10081000B5000400B1000400AD000400A90004000C
:10082000A5000300A20003009F0004009B0003003A
:10083000980003009500020093000300900003005D
:100840008D0002008B000300880002008600020079
:1008500084000300810002007F0002007D0002008E
:100860007B000200790002007700010076000200A0
:100870007400020072000100710002006F000200AB
:100880006D0001006C0002006A00010069000200B6
:1008900067000100660001006500010064000200BD
:1008A0006200010061000100600001005F000200C1
:1008B0005D0001005C0001005B0001005A000100C6
:1008C00059000100580001005700010056000100C6
:1008D00055000100540001005300000053000100C6
:1008E0005200010051000100500001004F000100C2
:1008F0004E0000004E0001004D0001004C000100C0
:100900004B0000004B0001004A00010049000100BB
:1009100048000000480001004700010046000000B8
:1009200046000100450000004500010044000100B0
:1009300043000000430001004200000042000100AB
:100940004100000041000100400001003F000000A4
:100950003F0001003E0000003E0001003D0000009D
:100960003D0001003C0000003C0000003C00010094
:100970003B0000003B0001003A0000003A0001008B
:100980003900000039000100380000003800000084
:100990003800010037000000370001003600000079
:1009A0003600000036000100350000003500000070
:1009B0003500010034000000340000003400010064
:1009C000330000003300000033000100320000005B
:1009D0003200000032000100310000003100000050
:1009E0003100010030000000300000003000010044
:1009F0002F0000002F0000002F0000002F0001003A
:100A00002E0000002E0000002E0001002D0000002E
:100A10002D0000002D0000002D0001002C00000022
:100A20002C0000002C0000002C0001002B00000016
:100A30002B0000002B0000002B0001002A0000000A
:100A40002A0000002A0000002A00010029000000FE
:100A500029000000290000002900000029000100F1
:100A600028000000280000002800000028000000E6
:100A700028000100270000002700000027000000D8
:100A800027000000270001002600000026000000CB
:100A900026000000260000002600010025000000BE
:100AA00025000000250000002500000025000000B2
:100AB00025000100240000002400000024000000A4
:100AC0002400000024000100230000002300000097
:100AD000230000002300000023000000230000008A
:100AE000230001002200000022000000220000007C
:100AF000220000002200000022000100210000006E
:100B00002100000021000000210000002100000061
:100B10002100000021000100200000002000000052
:100B20002000000020000000200000002000000045
:100B300020000000200001001F0000001F00000036
:100B40001F0000001F0000001F0000001F00000029
:100B50001F0001001E0000001E0000001E0000001B
:100B60001E00000024F4D43050C38E20C2A24017CF
:100B7000828B7011127A910D816CD90AA861E108FB
:100B8000C7586607615143061E4B5D05C145A70462
:100B90001A411104093D9803713931034036DB02D3
:100BA00065339102D4305402802E1D02632CEE0175
:100BB000752AC501B028A001102781018F25640185
:100BC0002B244B01E0223401AC211F018D200D01AB
:100BD000801FFC00841EED00971DDF00B81CD200B2
:100BE000E61BC600201BBC00641AB200B219A800A4
:100BF0000A19A0006A189900D117910040178B00BC
:100C0000B516840031167E00B31579003A157300CD
:100C1000C7146F0058146A00EE136600881363004F
:100C200025135E00C7125B006C12570015125400AA
:100C3000C111510070114F0021114B00D610490015
:100C40008D1047004610440002104200C00F4000C3
:100C5000800F3E00420F3C00060F3B00CB0E3800D9
:100C6000930E37005C0E3500270E3400F30D320072
:100C7000C10D3100900D3000600D2E00320D2D00A1
:100C8000050D2C00D90C2B00AE0C2900850C290079
:100C90005C0C2700350C27000E0C2600E80B240006
:100CA000C40B2400A00B23007D0B23005A0B210052
:100CB000390B2100180B2000F80A1F00D90A1E006A
:100CC000BB0A1E009D0A1D00800A1D00630A1C004D
:100CD000470A1B002C0A1B00110A1A00F7091A0008
:100CE000DD091900C4091900AB09190092091700A0
:100CF0007B091800630917004C0916003609160015
:100D0000200916000A091500F5081500E00814006E
:100D1000CC081400B8081400A408140090081300AC
:100D20007D0812006B0813005808120046081200D4
:100D300034081100230811001208110001081100E5
:100D4000F0071000E0071000D0071000C0071000E7
:100D5000B0070F00A107100091070E0083070F00D6
:100D600074070F0065070E0057070E0049070E00B5
:100D70003B070D002E070E0020070D0013070D0086
:100D800006070D00F9060C00ED060D00E0060C004C
:100D9000D4060C00C8060C00BC060C00B0060C0003
:100DA000A4060B0099060C008D060B0082060B00B2
:100DB00077060B006C060B0061060A0057060B0055
:100DC0004C060A0042060A0038060A002E060A00EF
:100DD00024060A001A060A001006090007060A007F
:100DE000FD050900F4050900EB050900E20509000D
:100DF000D9050900D0050900C7050900BE0509008D
:100E0000B5050800AD050800A50509009C0508000A
:100E1000940508008C050800840508007C0508007E
:100E2000740508006C050700650508005D050700EE
:100E3000560508004E050700470507004005080055
:100E400038050700310507002A05070023050700BC
:100E50001C050600160507000F050700080506001B
:100E600002050700FB040600F5040700EE04060077
:100E7000E8040600E2040700DB040600D5040600CF
:100E8000CF040600C9040600C3040600BD04060022
:100E9000B7040600B1040500AC040600A604060071
:100EA000A00405009B0406009504050090040600BC
:100EB0008A04050085040500800406007A04050004
:100EC00075040500700405006B0405006604050048
:100ED000610405005C040500570405005204050088
:100EE0004D04050048040500430405003E040400C9
:100EF0003A04050035040500300404002C04050004
:100F000027040400230405001E0404001A0404003E
:100F100016040500110404000D0404000904050072
:100F20000404040000040400FC030400F8030400AB
:100F3000F4030400F0030400EC030400E8030400DD
:100F4000E4030400E0030400DC030400D80304000D
:100F5000D4030400D0030400CC030400C80303003E
:100F6000C50303006563686F3A00205A3A002059B0
:100F70003A0020583A00656E6473746F707320688D
:100F800069743A20004572726F723A0054656D7050
:100F9000657261747572652068656174656420624C
:100FA0006564207377697463686564206F66662E74
:100FB000204D415854454D502074726967676572E1
:100FC0006564202121003A20457874727564657249
:100FD000207377697463686564206F66662E204DA0
:100FE000494E54454D502074726967676572656457
:100FF0002021003A204578747275646572207377F9
:10100000697463686564206F66662E204D4158548C
:10101000454D5020747269676765726564202100D0
:1010200070012C0190012701B0012201C0011D01B6
:10103000F00118011002130130020E0160020901D3
:1010400090020401C002FF000003FA004003F50013
:101050008003F000D003EB002004E6007004E10000
:10106000E004DC004005D700C005D2004006CD00FA
:10107000D006C8008007C3003008BE00F008B900E1
:10108000C009B400B00AAF00B00BAA00D00CA50094
:10109000000EA000500F9B00C0109600501291004F
:1010A00000148C00C0158700B0178200B0197D00B5
:1010B000D01B7800001E730040206E009022690053
:1010C000F024640040275F0090295A00E02B55006F
:1010D000102E500020304B0010324600E03341000B
:1010E00090353C001037370070383200A0392D00A1
:1010F000B03A2800A03B2300603C1E00103D1900C0
:10110000903D1400103E0F00703E0A00C03E0500E6
:10111000003F0000202D20496E76616C69642065D7
:1011200078747275646572206E756D6265722021C7
:1011300000202D20496E76616C6964206578747298
:1011400075646572206E756D626572210020403A8B
:10115000006F6B20543A00504944204175746F74FD
:10116000756E65206661696C656420212C2054656C
:101170006D706572617475726520746F206869673F
:101180006800204B643A2000204B693A2000204B35
:10119000703A2000204E6F206F76657273686F6F13
:1011A000742000204B643A2000204B693A20002034
:1011B0004B703A200020536F6D65206F7665727317
:1011C000686F6F742000204B643A2000204B693A0E
:1011D0002000204B703A200020436C61736963202B
:1011E00050494420002054753A2000204B753A2085
:1011F00000206D61783A2000206D696E3A20002051
:10120000643A200020626961733A200001290229B2
:10121000042908291029202940298029012C022C81
:10122000012602260426082610262026402680268F
:10123000402C802C01230223042308231023202385
:101240004023802301200220042008201020202099
:1012500040208020102C202C012F022F042F082F3B
:10126000102F202F402F802F7EFE7EFD7EFB7EF7ED
:101270007EEF7EDF7EBF7E7F00010000AC12120099
:10128000020000BE12430003000001130401030921
:1012900004051318020309041F1316030309043776
:1012A000130C0001C10201803601813612010002D7
:1012B00002000020C016830400010102030109029C
:1012C0004300020100C032090400000102020100D3
:1012D0000524001001052401000104240206052450
:1012E0000600010705820308004009040100020A04
:1012F00000000007050302400000070584024000CB
:10130000000403090418035400650065006E0073AF
:101310000079006400750069006E006F000000161F
:10132000035500530042002000530065007200691D
:101330000061006C0000000C033100320033003407
:101340000035000000494E46494E4954594E414E21
:10135000CDCCCC3D0AD7233C17B7D13877CC2B3234
:101360009595E6241FB14F0A000020410000C842B5
:1013700000401C4620BCBE4CCA1B0E5AAEC59D7414
:10138000911A037C8C1A11241FBECFEFD0E2DEBF6E
:10139000CDBF12E0A0E0B1E0E0EEF3E001E00BBF72
:1013A00002C007900D92AC3EB107D9F71BBE1DE0FD
:1013B000ACEEB2E001C01D92A53CB107E1F713E12C
:1013C000C4E8D3E104C02297FE010E949681C03890
:1013D000D107C9F70E9414790C94E4810C940000A1
:1013E000A0E0B0E0E6EFF9E00C94B381EC015B0122
:1013F0006115710519F0FB0191838083F9908F2DA0
:1014000090E00E949A81892BC9F7FDE2FF1621F432
:10141000F990EE24E39405C02BE2F21609F4F9905A
:10142000EE248E0101501040C80165E473E143E0F1
:1014300050E062D2892BF9F48E010E5F1F4FC80174
:1014400068E473E145E050E057D2892B19F48E012E
:10145000095F1F4FA114B10419F0F5011183008336
:10146000E0FC04C070E090E080E813C070E090E021
:1014700080E86FEF07C1C8016DE473E143E050E01D
:101480003BD2892B69F4A114B10429F470E090E0F7
:1014900080EC6FE7F7C02296F501D183C083F6CFC9
:1014A0008824992440E050E060E070E0EF2DE053A4
:1014B000EA30A0F5F2E0EF2A8E2D90E09C01287032
:1014C0003070E2FE06C0232B79F50894811C911C34
:1014D0002BC0232B19F0089481089108DB01CA0165
:1014E00012E0880F991FAA1FBB1F1A95D1F7480F4A
:1014F000591F6A1F7B1F440F551F661F771F4E0F12
:10150000511D611D711D483929E9520729E96207FA
:1015100029E1720748F084E0E82A06C0EE3F31F482
:10152000E3FC39C098E0E92AF990C0CFE53311F027
:10153000E53189F529912D3219F4E0E1EE2A05C053
:101540002B3219F081E090E003C0299182E090E015
:10155000E22FE053EA3018F0C81BD90B1CC020E082
:1015600030E0FCE020383F075CF4C901880F991F88
:10157000880F991F280F391F220F331F2E0F311D7F
:10158000E991E053EA3068F3E4FE03C03095219519
:101590003F4F820E931ECE2CDD24E1FE07C0A11426
:1015A000B10421F02197F501D183C083CB01BA01A9
:1015B0000E94FF7D7B018C01F3E0CF22DD2423E03C
:1015C000C216D10421F417FB109517F91095570195
:1015D0006801C801B70120E030E040E050E00E941F
:1015E0005F7D882309F44AC097FE0DC024E6E22EF1
:1015F00023E1F22E9094819491089394C0E2D0E07C
:1016000000E010E012C09CE7E92E93E1F92EF6CF3E
:10161000F7012591359145915491C601B5010E947C
:101620003F805B016C018C1A9D0A8C169D0684F725
:10163000D595C7950F5F1F4F0630110529F08CEF28
:101640009FEFE80EF91EF1CFC501D6017C018D0197
:101650008C2D880F8D2D881F8F3F51F0C601B5014D
:1016600020E030E040E050E00E945F7D882331F4CC
:1016700082E290E09093C40D8093C30D7E2D9F2D48
:10168000802F612F272F392F482F562FB901CA01DC
:10169000CDB7DEB7ECE00C94CF812F923F925F92F2
:1016A0006F927F928F929F92AF92BF92CF92DF9272
:1016B000EF92FF920F931F93CF93DF938C011B0147
:1016C000EA016115710519F0FB0191838083209770
:1016D00049F0CE010297839728F020E030E040E007
:1016E00050E0F6C0F801A1908F018A2D90E00E9491
:1016F0009A81892BB9F7FDE2AF1631F4F801A19078
:101700008F015524539407C0FBE2AF1619F4F8017A
:10171000A1908F015524209719F0C031D105C1F453
:10172000F0E3AF1679F4F8018081883711F088353D
:1017300049F4F801A1800E5F1F4FF2E05F2AC0E17B
:10174000D0E006C0209721F480E3A816E9F427C072
:10175000C830D10531F1C930D10524F4C230D105EA
:1017600031F50CC0CA30D10589F0C031D105F9F48A
:10177000C12CD12CE12CB8E0FB2E28C0C12CD12CDF
:10178000E12CA0E4FA2E22C0CAE0D0E0FCECCF2E7F
:10179000FCECDF2EFCECEF2EFCE0FF2E17C0C8E0C7
:1017A000D0E0C12CD12CE12CE0E1FE2E0FC09E0137
:1017B000442737FD4095542F60E070E080E090E8CA
:1017C0000E944381C901DA016C017D0120E030E013
:1017D00040E050E060E03E01882477FC8094982C43
:1017E00070EDB72EBA0CE9E0EB1570F48A2D815438
:1017F0008A3118F499ECB92E06C08A2D81568A31A7
:1018000050F589EAB82EBA0C8B2D90E08C179D0705
:1018100014F56F3FE1F0C216D306E406F506B0F00A
:10182000CA01B901A40193010E9411819B01AC017D
:101830002B0D311D411D511D2130F0E03F07F0E01F
:101840004F07F0E85F0710F461E001C06FEFF801A7
:10185000A1908F01C5CF2114310481F0662331F0AE
:1018600001501040F1011183008308C051FE1AC0DD
:1018700002501040F1011183008314C067FF12C0B1
:1018800050FC05C02FEF3FEF4FEF5FE704C020E0B3
:1018900030E040E050E882E290E09093C40D809305
:1018A000C30D16C050FE08C0509540953095219547
:1018B0003F4F4F4F5F4F0CC057FF0AC082E290E08E
:1018C0009093C40D8093C30D2FEF3FEF4FEF5FE771
:1018D000B901CA01DF91CF911F910F91FF90EF9055
:1018E000DF90CF90BF90AF909F908F907F906F9040
:1018F0005F903F902F900895FB01DC0141505040D4
:1019000088F08D9181341CF08B350CF4805E6591EC
:1019100061341CF06B350CF4605E861B611171F351
:10192000990B0895881BFCCFFB01DC0104C08D914D
:101930000190801921F441505040C8F7881B990B41
:101940000895FB01DC0102C001900D92415050400E
:10195000D8F70895FB01DC010D900020E9F71197FD
:1019600001900D920020E1F70895FC018191861706
:1019700021F08823D9F7992708953197CF01089549
:10198000FB01DC0101900D920020E1F70895FB01BD
:10199000DC014150504030F08D910190801919F4D4
:1019A0000020B9F7881B990B0895FB01DC01415019
:1019B000504048F001900D920020C9F701C01D92DF
:1019C00041505040E0F70895FB0151915523A9F093
:1019D000BF01DC014D9145174111E1F759F4CD01EB
:1019E0000190002049F04D9140154111C9F3FB01D0
:1019F0004111EFCF81E090E001970895AEE0B0E0B3
:101A0000E4E0FDE00C94BB810D891E8986E08C83A7
:101A10001A8309838FEF9FE79E838D839E01275E44
:101A20003F4FCE0101966F89788DA9010AD02F8191
:101A30003885020F131FF80110822E96E4E00C94F3
:101A4000D781ABE0B0E0E7E2FDE00C94AD813C0172
:101A50002B015A01FC0117821682838181FD03C08C
:101A60006FEF7FEFB9C19AE0892E1E010894211C07
:101A7000311CF3012381F20123FD859123FF819124
:101A80002F01882309F4A5C1853239F423FD8591FE
:101A900023FF81912F01853221F490E0B301B7D16A
:101AA000E8CF982FFF24EE249924FFE1FF15D0F012
:101AB0009B3269F09C3228F4903259F0933291F4C1
:101AC0000EC09D3249F0903369F441E024C052E0E9
:101AD000F52A84E0F82A28C098E0F92A25C0E0E138
:101AE000FE2A22C0F7FC29C0892F80538A3070F467
:101AF000F6FE05C0989C902C1124980E15C0E89C09
:101B0000E02C1124E80EF0E2FF2A0EC09E3229F4E8
:101B1000F6FC5FC140E4F42A07C09C3619F450E893
:101B2000F52A02C0983649F4F20123FD959123FF6E
:101B300091912F01992309F0B8CF892F85548330D3
:101B400018F08052833038F444E050E0A40EB51E03
:101B50005FE359830FC0933631F0933779F09335B3
:101B600009F052C01FC0F5018081898342E050E036
:101B7000A40EB51E610101E010E011C0F501C080A6
:101B8000D180F6FC03C06FEF7FEF02C0692D70E0DB
:101B900042E050E0A40EB51EC6012ED18C015FE7D5
:101BA000F52213C0F501C080D180F6FC03C06FEFB1
:101BB0007FEF02C0692D70E042E050E0A40EB51E38
:101BC000C6010FD18C0150E8F52AF3FE06C018C0FB
:101BD00080E290E0B3011BD1EA948E2D90E00817CB
:101BE0001907B0F30DC0F601F7FC8591F7FE81915E
:101BF0006F0190E0B3010BD1E110EA940150104065
:101C00000115110581F7E2C0943611F0993661F59E
:101C1000F7FE08C0F501208131814281538184E0C3
:101C200090E00AC0F501808191819C01442737FD35
:101C30004095542F82E090E0A80EB91E9FE6F9224D
:101C400057FF09C050954095309521953F4F4F4F14
:101C50005F4FE0E8FE2ACA01B901A1012AE030E0A5
:101C600002D1D82ED2183FC0953729F41F2D1F7EE0
:101C70002AE030E01DC01F2D197F9F3661F090379C
:101C800020F4983509F0A5C00FC0903739F0983787
:101C900009F09FC004C028E030E00AC0106114FDC4
:101CA000146020E130E004C014FD166020E132E051
:101CB00017FF08C0F501608171818281938144E042
:101CC00050E008C0F50180819181BC0180E090E086
:101CD00042E050E0A40EB51EA101C5D0D82ED21806
:101CE0008FE7F82EF122F6FE0BC05EEFF522D91435
:101CF00038F4F4FE07C0F2FC05C08FEEF82202C0F3
:101D00001D2D01C0192DF4FE0DC0FE01ED0DF11DBC
:101D10008081803319F499EEF92208C01F5FF2FE2A
:101D200005C003C08F2D867809F01F5F0F2DF3FCCF
:101D300013C0F0FE0EC01E1510F09D2C0AC09D2C85
:101D40009E0C911A1E2D05C080E290E0B3015FD079
:101D50001F5F1E15C8F304C01E1510F4E11A01C060
:101D6000EE2404FF0EC080E390E0B30150D002FFE8
:101D70001BC001FD03C088E790E00EC088E590E03D
:101D80000BC0802F867881F001FF02C08BE201C07A
:101D900080E2F7FC8DE290E0B30139D005C080E32A
:101DA00090E0B30134D09A94D914C8F3DA94F101D5
:101DB000ED0DF11D808190E0B30129D0DD20B1F758
:101DC00005C080E290E0B30122D0EA94EE20C9F78A
:101DD00050CEF30166817781CB012B96E2E10C9422
:101DE000C981FC010590615070400110D8F78095C1
:101DF00090958E0F9F1F0895FC01615070400190D7
:101E00000110D8F7809590958E0F9F1F08950F931E
:101E10001F93CF93DF938C01EB018B8181FF1BC05C
:101E200082FF0DC02E813F818C819D81281739074B
:101E300064F4E881F9810193F983E88306C0E885B9
:101E4000F985802F0995892B31F48E819F81019628
:101E50009F838E8302C00FEF1FEFC801DF91CF91E8
:101E60001F910F910895FA01AA27283051F12031CE
:101E700081F1E8946F936E7F6E5F7F4F8F4F9F4F1E
:101E8000AF4FB1E03ED0B4E03CD0670F781F891F60
:101E90009A1FA11D680F791F8A1F911DA11D6A0F2E
:101EA000711D811D911DA11D20D009F468943F91E1
:101EB0002AE0269F11243019305D3193DEF6CF01E0
:101EC0000895462F4770405D4193B3E00FD0C9F7A6
:101ED000F6CF462F4F70405D4A3318F0495D31FD13
:101EE0004052419302D0A9F7EACFB4E0A695979566
:101EF000879577956795BA95C9F70097610571053C
:101F000008959B01AC010A2E069457954795379585
:101F10002795BA95C9F7620F731F841F951FA01DDF
:101F20000895DF93CF930F92CDB7DEB7FC0169839D
:101F3000A081B18114962D913C911597BE016F5FE0
:101F40007F4F41E050E0F90109950F90CF91DF916B
:101F50000895FC01138A168A2EEC32E0328B218B15
:101F600012AA15AA31AB20ABE15BFF4F108233966A
:101F700010823597318320837F96108233961082AA
:101F80003597318320837E9689E180833396108252
:101F90007896108239961082339610823597318365
:101FA00020837D96108211821282138238961082CD
:101FB000118212821382EF5CF04011821282108231
:101FC000ED52FF4F81E08083E35DF040108A178679
:101FD0000FB6F8948091B10D9091B20DA091B30D10
:101FE000B091B40D0FBEE553FF4F88579C4EAF4FD5
:101FF000BF4F80839183A283B3830895FC01118234
:1020000012820895FC018281882311F081E081838E
:102010000895FC0181818111118208950F931F930E
:102020008C010E940F610E94EC60F801118280E037
:1020300091E00E94133A1F910F910895FC018EECDC
:1020400092E0918380838581882321F0CF010296DD
:102050000C9405540895EF92FF920F931F937C0107
:102060008C0104551F4FC8010E94B753C8010E943C
:102070000554F70110821F910F91FF90EF90089582
:10208000CF92DF92EF92FF920F931F93CF93DF9344
:102090007C016B01DB010D900020E9F78D010150FF
:1020A0001040061B170BECEAF0E0EE0EFF1ED70106
:1020B0001C92E4E5FFEFEE0EFF1ECB016EE470E034
:1020C00054DCEC01009731F4F8013197EC0DFD1D63
:1020D00086010CC060E270E048DC8C010F5F1F4F8E
:1020E000CE016AE270E041DCFC0131978DE0818332
:1020F0008AE082831382C70186559F4FB8010E94F0
:10210000755B8CEA90E0E80EF91ED7018C9188236C
:10211000F1F0EEEFF0E06491EF0106C08AEB9DE094
:1021200000DF2196FE0164916623C1F7E5E0F1E04E
:102130006491EF0106C08AEB9DE0F3DE2196FE017B
:1021400064916623C1F78AEB9DE06AE0EADEDF91E5
:10215000CF911F910F91FF90EF90DF90CF90089556
:10216000EF92FF920F93CF93DF937C01FC0182816A
:10217000882309F43DC0EDE2F1E06491EF0106C06F
:102180008AEB9DE0CEDE2196FE0164916623C1F7C5
:102190008FEC90E0E80EF91EF701408151816281D9
:1021A000738181E39FEFE80EF91E8AEB9DE02AE040
:1021B00000E00E945579EBE2F1E06491EF0106C086
:1021C0008AEB9DE0AEDE2196FE0164916623C1F7A5
:1021D00087EC90E0E80EF91EF701408151816281A1
:1021E00073818AEB9DE02AE000E00E9455790DC0E2
:1021F000EBE1F1E06491EF0106C08AEB9DE091DE36
:102200002196FE0164916623C1F78AEB9DE06AE0A6
:1022100088DEDF91CF910F91FF90EF9008952F927C
:102220003F924F925F926F927F928F929F92AF9266
:10223000BF92CF92DF92EF92FF920F931F93DF93A3
:10224000CF93CDB7DEB7AB970FB6F894DEBF0FBE16
:10225000CDBF5C014B014BA7FC018281882309F4AF
:10226000B6C13CEA432E512C4A0C5B1CC2010E94B1
:102270000554F5011182188A1B8A8EEC92E09F8723
:102280008E87C501419697A786A7F40180818F327A
:1022900009F086C0C4016FE270E067DB7C0108943E
:1022A000E11CF11C3E010894611C711C20E1222EEE
:1022B000312C2C0E3D1E6FC0C7016FE270E055DB64
:1022C0006C01009709F474C0E816F90608F070C0B4
:1022D0008C010E191F09C301B701A80166DB060DA9
:1022E000171DF8011082E091BA0DF091BB0D02802C
:1022F000F381E02D8AEB9DE0B30109958AEB9DE027
:102300006AE00FDEF50166A577A56115710519F480
:1023100060E070E002C06E5F7F4FC101A30121E069
:102320000E947C5A882361F5EFEDF1E064917F0112
:1023300008C08AEB9DE0F5DD0894E11CF11CF70173
:1023400064916623B1F7E091BA0DF091BB0D028064
:10235000F381E02D8AEB9DE0BE016F5F7F4F099511
:10236000EDEDF1E064917F0108C08AEB9DE0D9DDDD
:102370000894E11CF11CF70164916623B1F720C1B8
:102380002EE030E02C0F3D1FF50137A726A7760180
:102390000894E11CF11CE114F10409F08DCF05C093
:1023A000C501C096F50197A786A7082DD92C02C0B4
:1023B0000E2DDF2CF50166A577A5FBA5FF2309F4FB
:1023C000A7C06115710519F460E070E002C06E5F8E
:1023D0007F4FC201402F5D2D21E00E947C5A88234F
:1023E00009F46BC0A50149535F4F2DEB30E0A20EFD
:1023F000B31EF50180819181A281B38123E43FEF77
:10240000A20EB31EFA0180839183A283B383E0ED11
:10241000F1E064917F0108C08AEB9DE082DD0894C1
:10242000E11CF11CF70164916623B1F7E091BA0D4C
:10243000F091BB0D0280F381E02D8AEB9DE0602FCF
:102440007D2D0995E9ECF1E064917F0108C08AEBEC
:102450009DE067DD0894E11CF11CF701649166239F
:10246000B1F727EC30E0A20EB31EF5014081518197
:10247000628173818AEB9DE02AE000E00E94557939
:102480008AEB9DE06AE04DDD28E030E0A20EB31E4D
:10249000F5011082118212821382EBEBF1E064915C
:1024A0007F0108C08AEB9DE03CDD0894E11CF11C33
:1024B000F70164916623B1F783C0E7EAF1E0649124
:1024C0007F0108C08AEB9DE02CDD0894E11CF11C23
:1024D000F70164916623B1F7E091BA0DF091BB0D5D
:1024E0000280F381E02D8AEB9DE0602F7D2D099520
:1024F000E5EAF1E064917F0108C08AEB9DE011DD1F
:102500000894E11CF11CF70164916623B1F758C0EF
:102510006115710519F460E070E002C06E5F7F4FD5
:10252000C201402F5D2D26E50E947C5A882359F573
:10253000E1E9F1E064917F0108C08AEB9DE0F1DC04
:102540000894E11CF11CF70164916623B1F7E09156
:10255000BA0DF091BB0D0280F381E02D8AEB9DE076
:10256000602F7D2D0995EFE8F1E064917F0108C0AF
:102570008AEB9DE0D6DC0894E11CF11CF701649124
:102580006623B1F71DC081E0F5018083EDE7F1E03E
:1025900064917F0108C08AEB9DE0C3DC0894E11CD4
:1025A000F11CF70164916623B1F7E091BA0DF09147
:1025B000BB0D0280F381E02D8AEB9DE0B40109950B
:1025C0008AEB9DE06AE0ADDCCE010E9637DDAB967E
:1025D0000FB6F894DEBF0FBECDBFCF91DF911F9134
:1025E0000F91FF90EF90DF90CF90BF90AF909F90B2
:1025F0008F907F906F905F904F903F902F900895B5
:102600002F923F924F925F926F927F928F929F9202
:10261000AF92BF92CF92DF92EF92FF920F931F93F0
:10262000DF93CF93CDB7DEB7AA970FB6F894DEBF8E
:102630000FBECDBF5C014B01FC018281882309F4F0
:102640000CC1C50184559F4F0E940554F5011182AC
:10265000188A1B8A8EEC92E09F878E87C50141966F
:1026600097A786A7F40180818F3209F087C0C40143
:102670006FE270E07AD97C010894E11CF11C3E0104
:102680000894611C711C5EE0252E312C2C0E3D1E21
:1026900040E1442E512C4C0E5D1E6BC0C7016FE211
:1026A00070E063D96C01009709F470C0E816F90670
:1026B00008F06CC08C010E191F09C301B701A801F5
:1026C00074D9060D171DF8011082E091BA0DF09132
:1026D000BB0D0280F381E02D8AEB9DE0B3010995EB
:1026E0008AEB9DE06AE01DDCF50166A577A5611522
:1026F000710519F460E070E002C06E5F7F4FC201A7
:10270000A30121E00E947C5A882361F5E9E6F1E00B
:1027100064917F0108C08AEB9DE003DC0894E11C12
:10272000F11CF70164916623B1F7E091BA0DF091C5
:10273000BB0D0280F381E02D8AEB9DE0BE016F5F4F
:102740007F4F0995E7E6F1E064917F0108C08AEBCD
:102750009DE0E7DB0894E11CF11CF701649166231E
:10276000B1F774C0F50137A626A676010894E11CDE
:10277000F11CE114F10409F091CF05C0C501C09628
:10278000F50197A786A7D82C092D02C0DE2C0F2DA6
:10279000F50186A597A5009719F480E090E001C0A7
:1027A00002966D2D702F0E94485B882329F1E9E580
:1027B000F1E064917F0108C08AEB9DE0B2DB0894F0
:1027C000E11CF11CF70164916623B1F7E091BA0DA9
:1027D000F091BB0D0280F381E02D8AEB9DE06D2D21
:1027E000702F09958FEC90E0A80EB91EF5011082AC
:1027F0001182128213822EC0E1E4F1E064917F0124
:1028000008C08AEB9DE08DDB0894E11CF11CF70108
:1028100064916623B1F7E091BA0DF091BB0D02808F
:10282000F381E02D8AEB9DE06D2D702F0995EFE38C
:10283000F1E064917F0108C08AEB9DE072DB0894AF
:10284000E11CF11CF70164916623B1F78AEB9DE06E
:102850006AE067DBCE010E96F1DBAA960FB6F8941C
:10286000DEBF0FBECDBFCF91DF911F910F91FF90C3
:10287000EF90DF90CF90BF90AF909F908F907F9020
:102880006F905F904F903F902F900895EF92FF923E
:102890000F931F93CF93DF937C01FC0112828689F3
:1028A000882321F0C70143960E94055487010957E8
:1028B0001F4FC80160E04AE10E94CF518823D9F43C
:1028C000E3EEF0E06491EF0106C08AEB9DE029DBC6
:1028D0002196FE0164916623C1F7E9E4F2E0649178
:1028E000EF0106C08AEB9DE01CDB2196FE0164919E
:1028F0006623C1F76BC0E701C457DF4FCE01B801B3
:1029000041E00E94065C882311F5CE01B80140E049
:102910000E94065C8823D9F4EEEFF0E06491EF01A9
:1029200006C08AEB9DE0FDDA2196FE0164916623E4
:10293000C1F7E6E3F2E06491EF0106C08AEB9DE0A7
:10294000F0DA2196FE0164916623C1F73FC0C7010A
:102950004396BE010E9482568823D9F4EEEFF0E040
:102960006491EF0106C08AEB9DE0DBDA2196FE015F
:1029700064916623C1F7E6E2F2E06491EF0106C0DC
:102980008AEB9DE0CEDA2196FE0164916623C1F7C1
:102990001DC081E0F7018283E3EEF0E06491EF0176
:1029A00006C08AEB9DE0BDDA2196FE0164916623A4
:1029B000C1F7EBE1F2E06491EF0106C08AEB9DE024
:1029C000B0DA2196FE0164916623C1F78AEB9DE09F
:1029D0006AE0A7DAC7014196F70197A786A7C70162
:1029E000C2962CE830E0E20EF31EB7010E94825638
:1029F000882389F4E7E0F2E06491EF0106C08AEBF6
:102A00009DE08FDA2196FE0164916623C1F78AEB7F
:102A10009DE06AE086DADF91CF911F910F91FF90E0
:102A2000EF9008952F923F924F925F927F928F92F4
:102A30009F92AF92BF92CF92DF92EF92FF920F934D
:102A40001F93DF93CF93CDB7DEB7CC55D0400FB6F1
:102A5000F894DEBF0FBECDBF7C01662359F523ED90
:102A600030E0E20EF31ED7018C91EDE2FFEFEE0EA7
:102A7000FF1E882309F4F2C00FB6F8942091B10D1F
:102A80003091B20D4091B30D5091B40D0FBE6BEC6F
:102A900070E0E60EF71EF70180819181A281B3817B
:102AA00065E37FEFE60EF71E82179307A407B507CD
:102AB00008F4D4C083ED90E0E80EF91ED7011C9213
:102AC000EDE2FFEFEE0EFF1ED70112968C918823E8
:102AD00039F4C701DBDEF7018281882309F4BEC027
:102AE00000D000D000D0EDB7FEB731968E010F5F59
:102AF0001F4FADB7BEB712961C930E9311978CE083
:102B000091E093838283D7011F968D919C9150977A
:102B1000958384830E94FE0CCC24DD24EDB7FEB7A0
:102B200036960FB6F894FEBF0FBEEDBF58010AC02F
:102B3000D8018C91992787FD90950E94A281F80178
:102B400081938F01C601F50101900020E9F73197CB
:102B5000EA19FB090894C11CD11C8E179F0744F386
:102B6000E3E18E2E912C8E0C9F1CC40140E050E0BE
:102B700060E070E00E94ED5277247DE3A72EB12C37
:102B8000AC0EBD1E1E010894211C311C6FE1462EA7
:102B9000512C4C0E5D1E48C0D6018C9190E00E94D5
:102BA000A281F60181936F01C801F5010190002017
:102BB000E9F73197EA19FB090F5F1F4F8E179F073F
:102BC0005CF327968FAD27978E3771F1C501B10160
:102BD00045E050E00E94C70C009731F500D000D0CE
:102BE00000D0EDB7FEB73196ADB7BEB712965C9286
:102BF0004E92119725E131E033832283358224827E
:102C00000E94FE0C6DB77EB76A5F7F4F0FB6F894D7
:102C10007EBF0FBE6DBFC2010E94133A8CE191E0EE
:102C20000E94133A77247394C401B5010E94FB55A6
:102C3000181624F4650100E010E0B6CF772041F4C7
:102C40008FEF9FEFD70150969C938E931F9706C0EE
:102C5000F701878590890196908B8787C45ADF4F4B
:102C60000FB6F894DEBF0FBECDBFCF91DF911F919D
:102C70000F91FF90EF90DF90CF90BF90AF909F901B
:102C80008F907F905F904F903F902F9008952F925C
:102C90003F924F925F926F927F928F929F92AF92EC
:102CA000BF92CF92DF92EF92FF920F931F93DF9329
:102CB000CF93CDB7DEB7C958D0400FB6F894DEBF7A
:102CC0000FBECDBF6C012B015A0182E090E0A80E2F
:102CD000B91EF6013396CE57DF4FF983E883C25809
:102CE000D040CC57DF4F1882C458D04012E6E12EB6
:102CF000F12CEC0EFD1EC7010B96CB57DF4F9983CD
:102D00008883C558D040B4ED6B2E712C6C0C7D1CA3
:102D1000A6ED8A2E912C8C0C9D1CFEE02F2E312CC2
:102D20002C0E3D1EE5E4F0E0EC0FFD1F3296C95776
:102D3000DF4FF983E883C758D040E3EEF0E0849199
:102D4000C757DF4F8883C958D04034C1F701838506
:102D5000482F50E0BA01687170706031710509F058
:102D600031C1F301208131812130310509F42AC1BB
:102D70002230310509F426C1F701DE011196908158
:102D8000903239F08E2F8E19883011F48EE28D93A7
:102D90009D933196CB57DF4F88819981C558D0409C
:102DA000E817F90761F71C921E86F20180818823DB
:102DB00029F4C10160E271E00E94AA0CC101B201D4
:102DC0000E94AA0CC101BE016F5F7F4F0E94AA0C36
:102DD000C10160E271E00E94AA0C1AA61DA68EEC49
:102DE00092E099A788A7CE018A96B501AE014F5F00
:102DF0005F4F21E00E947C5A8823B9F5F30180815E
:102E00009181892B91F5C757DF4F6881C958D04010
:102E100003EE10E007C08AEB9DE083D80F5F1F4FE1
:102E2000F80164916623B9F7E091BA0DF091BB0DFA
:102E30000280F381E02D8AEB9DE062E271E009956A
:102E40008AEB9DE06AE06DD8E091BA0DF091BB0D80
:102E50000280F381E02D8AEB9DE0BE016F5F7F4F22
:102E600009958AEB9DE06AE05CD8C957DF4FA881DD
:102E7000B981C758D040FE01BA968BE101900D92FE
:102E80008150E1F78EEC92E027969FAF8EAF2797A7
:102E9000C601B101AE014B5B5F4FF9DECE018B5B2A
:102EA0009F4FCCD8CE018896C9D884C0953E09F4EE
:102EB00081C09E3209F47EC09F3509F47BC043FD7A
:102EC00079C080E06031710509F481E0F601868700
:102ED000882349F4F7018085873409F06BC0818528
:102EE0008E3709F467C0CE57DF4FA881B981C25829
:102EF000D040F7018081803241F08E2F8E198830CA
:102F000011F48EE28D9380818D933196CB57DF4FF4
:102F100088819981C558D040E817F90759F71C9264
:102F2000F30180819181009709F5E091BA0DF0914C
:102F3000BB0D0280F381E02D8AEB9DE0B201099583
:102F4000E091BA0DF091BB0D0280F381E02D8AEB88
:102F50009DE0CE57DF4F68817981C258D0400995F6
:102F60008AEB9DE06AE00E94910F24C081309105B8
:102F700039F4F401808191810196918380831AC094
:102F80000297C1F4CC57DF4FF881C458D0402F2F9F
:102F900030E0F4018081918128173907C1F0CC57C6
:102FA000DF4FF881C458D040FF5FCC57DF4FF88324
:102FB000C458D040C501B7010E94FB5518160CF447
:102FC000C5CE05C0F7019081992309F06FCFC7578F
:102FD000DF4F0FB6F894DEBF0FBECDBFCF91DF91AC
:102FE0001F910F91FF90EF90DF90CF90BF90AF9027
:102FF0009F908F907F906F905F904F903F902F9019
:103000000895EF92FF920F931F93DF93CF93CDB765
:10301000DEB76D970FB6F894DEBF0FBECDBF7C0153
:1030200084ED90E0E80EF91EF701118210828CE227
:103030009FEFE80EF91E87010D5E1F4FC80140E0AB
:1030400050E060E070E00E94ED52DE011396F8015E
:103050008BE101900D928150E1F78EEC92E09A8322
:103060008983C70165E371E08E010F5F1F4FA801DF
:103070000EDEC8010E941E106D960FB6F894DEBFDA
:103080000FBECDBFCF91DF911F910F91FF90EF90B9
:103090000895DC01ED91FC910280F381E02D09950A
:1030A00008950F931F93DF93CF93CDB7DEB7289783
:1030B0000FB6F894DEBF0FBECDBF80913601909160
:1030C0003701A0913801B091390189839A83AB838C
:1030D000BC8380E090E09E012F5F3F4FF901E80F35
:1030E000F91FE081F999FECF1FBA8C599F4F92BD0D
:1030F00081BDE0BD0FB6F894FA9AF99A0FBE8356D7
:1031000090408430910551F7EDECF5E088E690E0D1
:103110002191F999FECF1FBA92BD81BD20BD0FB696
:10312000F894FA9AF99A0FBE019625E0ED3DF20760
:1031300079F7EDEBF5E088E790E02191F999FECF82
:103140001FBA92BD81BD20BD0FB6F894FA9AF99AC4
:103150000FBE019625E0ED3CF20779F7EDEDF5E0C5
:1031600088E890E02191F999FECF1FBA92BD81BD08
:1031700020BD0FB6F894FA9AF99A0FBE019625E091
:10318000ED3EF20779F7E1EFF5E088E990E0219173
:10319000F999FECF1FBA92BD81BD20BD0FB6F8943C
:1031A000FA9AF99A0FBE019625E0E53FF20779F702
:1031B000E5EFF5E08CE990E02191F999FECF1FBA97
:1031C00092BD81BD20BD0FB6F894FA9AF99A0FBE50
:1031D000019625E0E93FF20779F7EDEEF5E080EAA8
:1031E00090E02191F999FECF1FBA92BD81BD20BD1B
:1031F0000FB6F894FA9AF99A0FBE019625E0E13FCE
:10320000F20779F7E5E0F6E084EA90E02191F99998
:10321000FECF1FBA92BD81BD20BD0FB6F894FA9AB9
:10322000F99A0FBE019626E0E930F20779F7E9EB4B
:10323000F5E088EA90E02191F999FECF1FBA92BD9E
:1032400081BD20BD0FB6F894FA9AF99A0FBE019687
:1032500025E0ED3BF20779F7E9EFF5E08CEA90E045
:103260002191F999FECF1FBA92BD81BD20BD0FB645
:10327000F894FA9AF99A0FBE019625E0ED3FF2070D
:1032800079F7EDEFF5E080EB90E02191F999FECF31
:103290001FBA92BD81BD20BD0FB6F894FA9AF99A73
:1032A0000FBE019626E0E130F20779F7E1E0F6E0A3
:1032B00084EB90E02191F999FECF1FBA92BD81BDB8
:1032C00020BD0FB6F894FA9AF99A0FBE019626E03F
:1032D000E530F20779F7EEE3F2E088EB90E0219138
:1032E000F999FECF1FBA92BD81BD20BD0FB6F894EB
:1032F000FA9AF99A0FBE019622E0E234F20779F7C2
:10330000E2E4F2E08CEB90E02191F999FECF1FBA54
:1033100092BD81BD20BD0FB6F894FA9AF99A0FBEFE
:10332000019622E0E634F20779F7E6E4F2E080EC79
:1033300090E02191F999FECF1FBA92BD81BD20BDC9
:103340000FB6F894FA9AF99A0FBE019622E0EA3481
:10335000F20779F780913A0190913B01A0913C01ED
:10336000B0913D018D839E83AF83B88780E090E06C
:103370009E012B5F3F4FF901E80FF91FE081F9999A
:10338000FECF1FBA8C599F4F92BD81BDE0BD0FB6D5
:10339000F894FA9AF99A0FBE8356904084309105BA
:1033A00051F7E9E8F2E064918F0108C08AEB9DE0F3
:1033B0000E94910F0F5F1F4FF80164916623B1F7D0
:1033C000E1EBF3E064918F0108C08AEB9DE00E947D
:1033D000910F0F5F1F4FF80164916623B1F78AEBDD
:1033E0009DE06AE00E94910F28960FB6F894DEBF28
:1033F0000FBECDBFCF91DF911F910F910895CF9355
:10340000DF930FB6F8948091B10D9091B20DA09119
:10341000B30DB091B40D0FBE8093EB039093EC030A
:10342000A093ED03B093EE03E0911404F091150422
:10343000EA5EFB4F8081882399F4EEE7F2E0649125
:10344000EF0107C08AEB9DE00E94910F2196FE01DB
:1034500064916623B9F78AEB9DE06AE00E94910FC0
:10346000DF91CF9108958130910541F46F5F7F4FD7
:1034700009F051C08CEE92E00C94A90F892B09F051
:103480004AC06F5F7F4F09F046C08EEC92E0909388
:1034900097038093960380919B03882321F088E90A
:1034A00093E00E9405548EEC92E090935703809332
:1034B000560380915B03882321F088E593E00E9406
:1034C00005548EEC92E090933A03809339038091F7
:1034D0003E03882321F08BE393E00E9405548EEC99
:1034E00092E090931D0380931C0380912103882315
:1034F00021F08EE193E00E9405548EEC92E09093CF
:10350000FE028093FD0280910203882321F08FEF59
:1035100092E00C940554089580E090E06FEF7FEF07
:10352000A2CF81E090E06FEF7FEF9DCFCF93DF934D
:10353000E6E5F2E06491EF0107C08AEB9DE00E94AE
:10354000910F2196FE0164916623B9F7EDE5F2E053
:103550006491EF0107C08AEB9DE00E94910F2196D4
:10356000FE0164916623B9F78AEB9DE06AE00E9450
:10357000910F0E940C6F779A769A479A439AF89423
:10358000DF91CF910895EF92FF920F931F930FB6A3
:10359000F8948091B10D9091B20DA091B30DB091BE
:1035A000B40D0FBEE090EF03F090F0030091F10333
:1035B0001091F2032091EB033091EC034091ED0365
:1035C0005091EE03821B930BA40BB50BE816F90682
:1035D0000A071B0730F4E114F1040105110509F095
:1035E000A5DFE0903002F09031020091320210919C
:1035F0003302E114F1040105110531F10FB6F8941D
:103600008091B10D9091B20DA091B30DB091B40D18
:103610000FBE2091EB033091EC034091ED035091EC
:10362000EE03821B930BA40BB50BE816F9060A07F1
:103630001B0750F49091F90A8091FA0A981721F427
:10364000779A769A479A439A0E94343E1F910F9137
:10365000FF90EF9008956F927F928F929F92AF921A
:10366000BF92CF92DF92EF92FF920F931F93F82EAB
:103670006091F3037091F4038091F5039091F60348
:103680002091F7033091F8034091F9035091FA0328
:103690000E947A7F3B014C0160912C0270912D02B7
:1036A00000D000D000D00DB71EB70F5F1F4F882786
:1036B00077FD8095982F0E94017E209134023091F1
:1036C000350240913602509137020E943F8020E03F
:1036D00030E040E752E40E94667D20E030E048ECB4
:1036E00052E40E94667D5B016C01F8016082718288
:1036F00082829382F4828091E90385838DEC93E04A
:103700006FEF73E043EF53E020E001E032E0E32E9F
:103710000E948A3A8091FF0390910004A0910104D5
:10372000B09102048093CD039093CE03A093CF0376
:10373000B093D0038091030490910404A0910504F8
:10374000B09106048093D1039093D203A093D30346
:10375000B093D4038091070490910804A0910904C8
:10376000B0910A048093D5039093D603A093D70316
:10377000B093D80380910B0490910C04A0910D0498
:10378000B0910E048093D9039093DA03A093DB03E6
:10379000B093DC030FB6F8948091B10D9091B20D07
:1037A000A091B30DB091B40D0FBE8093EB03909335
:1037B000EC03A093ED03B093EE038DB79EB706968E
:1037C0000FB6F8949EBF0FBE8DBF1F910F91FF9053
:1037D000EF90DF90CF90BF90AF909F908F907F90B1
:1037E0006F900895CF92DF92EF92FF920F931F9305
:1037F0006091FF0370910004809101049091020494
:1038000020E030E04DE453E40E946D7F181664F42C
:1038100080E090E0ADE4B3E48093FF039093000474
:10382000A0930104B0930204609103047091040416
:10383000809105049091060420E030E047E553E4D0
:103840000E946D7F181664F480E090E0A7E5B3E471
:103850008093030490930404A0930504B09306049A
:1038600060910704709108048091090490910A0402
:1038700020E030E04CE553E40E946D7F181664F4BC
:1038800080E090E0ACE5B3E48093070490930804F3
:10389000A0930904B0930A040FB6F8948091B10D77
:1038A0009091B20DA091B30DB091B40D0FBE809365
:1038B000EB039093EC03A093ED03B093EE036091C0
:1038C0002C0270912D02882777FD8095982F0E94F9
:1038D000017E2091340230913502409136025091A0
:1038E00037020E943F8020E030E040E752E40E942F
:1038F000667D20E030E048EC52E40E94667D7B016A
:103900008C018FEF93E063E074E047E054E02BE03C
:1039100034E0E9EECE2EE3E0DE2E0E94B543809146
:10392000FF0390910004A0910104B09102048093E0
:10393000CD039093CE03A093CF03B093D003809197
:10394000030490910404A0910504B09106048093AF
:10395000D1039093D203A093D303B093D403809167
:10396000070490910804A0910904B0910A0480937F
:10397000D5039093D603A093D703B093D803809137
:103980000B0490910C04A0910D04B0910E0480934F
:10399000D9039093DA03A093DB03B093DC031F9168
:1039A0000F91FF90EF90DF90CF900895CF93DF932A
:1039B0008AEB9DE00E94077BE1E8F2E06491EF0171
:1039C00007C08AEB9DE00E94910F2196FE01649151
:1039D0006623B9F740911A0450911B0460911C04AE
:1039E00070911D044F5F5F4F6F4F7F4F8AEB9DE0DB
:1039F0000E94E0798AEB9DE06AE00E94910FFFDC73
:103A0000DF91CF910895409114045091150420E660
:103A100030E0B901469F9001479F300D569F300D11
:103A20001124682F772767FD7095C901885D9B4F2A
:103A30000E94B50C9C01909323048093220480E0A3
:103A4000232B09F081E00895EF92FF920F93CF931B
:103A5000DF93F9E8EF2EF2E0FF2EF7016491E70122
:103A600007C08AEB9DE00E94910F2196FE016491B0
:103A70006623B9F7E9E5F5E06491EF0107C08AEB49
:103A80009DE00E94910F2196FE0164916623B9F793
:103A90008AEB9DE06AE00E94910FF7016491C9E80A
:103AA000D2E007C08AEB9DE00E94910F2196FE01B3
:103AB00064916623B9F7E1E5F5E06491EF0107C091
:103AC0008AEB9DE00E94910F2196FE01649166238E
:103AD000B9F74091CD055091CE056091CF05709119
:103AE000D0058AEB9DE022E00E94F179EEE4F5E05A
:103AF0006491EF0107C08AEB9DE00E94910F21962F
:103B0000FE0164916623B9F74091D1055091D20529
:103B10006091D3057091D4058AEB9DE022E00E946C
:103B2000F179EBE4F5E06491EF0107C08AEB9DE0E9
:103B30000E94910F2196FE0164916623B9F740918E
:103B4000D5055091D6056091D7057091D8058AEBBF
:103B50009DE022E00E94F179E8E4F5E06491EF0154
:103B600007C08AEB9DE00E94910F2196FE016491AF
:103B70006623B9F74091D9055091DA056091DB05CC
:103B80007091DC058AEB9DE022E00E94F1798AEBDE
:103B90009DE06EE371E07DDA8AEB9DE06AE00E94D1
:103BA000910FF7016491C9E8D2E007C08AEB9DE06C
:103BB0000E94910F2196FE0164916623B9F7EEE20F
:103BC000F5E06491EF0107C08AEB9DE00E94910F40
:103BD0002196FE0164916623B9F78AEB9DE06AE0C5
:103BE0000E94910FF7016491C9E8D2E007C08AEB07
:103BF0009DE00E94910F2196FE0164916623B9F722
:103C0000E5E2F5E06491EF0107C08AEB9DE00E94D8
:103C1000910F2196FE0164916623B9F74091BD058D
:103C20005091BE056091BF057091C0058AEB9DE083
:103C300022E00E94F179E2E2F5E06491EF0107C031
:103C40008AEB9DE00E94910F2196FE01649166230C
:103C5000B9F74091C1055091C2056091C3057091BB
:103C6000C4058AEB9DE022E00E94F179EFE1F5E0E6
:103C70006491EF0107C08AEB9DE00E94910F2196AD
:103C8000FE0164916623B9F74091C5055091C605C0
:103C90006091C7057091C8058AEB9DE022E00E9403
:103CA000F179ECE1F5E06491EF0107C08AEB9DE06A
:103CB0000E94910F2196FE0164916623B9F740910D
:103CC000C9055091CA056091CB057091CC058AEB6E
:103CD0009DE022E00E94F1798AEB9DE06EE371E0C5
:103CE000D8D98AEB9DE06AE00E94910FF7016491B8
:103CF000C9E8D2E007C08AEB9DE00E94910F2196AF
:103D0000FE0164916623B9F7EEEFF4E06491EF01F0
:103D100007C08AEB9DE00E94910F2196FE016491FD
:103D20006623B9F78AEB9DE06AE00E94910FF701E4
:103D30006491C9E8D2E007C08AEB9DE00E94910F30
:103D40002196FE0164916623B9F7E5EFF4E06491F2
:103D5000EF0107C08AEB9DE00E94910F2196FE01C2
:103D600064916623B9F74091DD055091DE056091BD
:103D7000DF057091E0058AEB9DE02AE000E00E94FB
:103D80005579E2EFF4E06491EF0107C08AEB9DE022
:103D90000E94910F2196FE0164916623B9F740912C
:103DA000E1055091E2056091E3057091E4058AEB2D
:103DB0009DE02AE000E00E945579EFEEF4E0649186
:103DC000EF0107C08AEB9DE00E94910F2196FE0152
:103DD00064916623B9F74091E5055091E60560913D
:103DE000E7057091E8058AEB9DE02AE000E00E947B
:103DF0005579ECEEF4E06491EF0107C08AEB9DE0A9
:103E00000E94910F2196FE0164916623B9F74091BB
:103E1000E9055091EA056091EB057091EC058AEB9C
:103E20009DE02AE000E00E9455798AEB9DE06EE378
:103E300071E02FD98AEB9DE06AE00E94910FF701B3
:103E40006491C9E8D2E007C08AEB9DE00E94910F1F
:103E50002196FE0164916623B9F7E7EBF4E06491E3
:103E6000EF0107C08AEB9DE00E94910F2196FE01B1
:103E700064916623B9F78AEB9DE06AE00E94910F96
:103E8000F7016491C9E8D2E007C08AEB9DE00E9487
:103E9000910F2196FE0164916623B9F7EEEAF4E0F2
:103EA0006491EF0107C08AEB9DE00E94910F21967B
:103EB000FE0164916623B9F74091F1055091F20536
:103EC0006091F3057091F4058AEB9DE022E00E9479
:103ED000F179EBEAF4E06491EF0107C08AEB9DE031
:103EE0000E94910F2196FE0164916623B9F74091DB
:103EF000F5055091F6056091F7057091F8058AEB8C
:103F00009DE022E00E94F1798AEB9DE06EE371E092
:103F1000C0D88AEB9DE06AE00E94910FF70164919E
:103F2000C9E8D2E007C08AEB9DE00E94910F21967C
:103F3000FE0164916623B9F7E2E1F4E06491EF01D8
:103F400007C08AEB9DE00E94910F2196FE016491CB
:103F50006623B9F78AEB9DE06AE00E94910FF701B2
:103F60006491C9E8D2E007C08AEB9DE00E94910FFE
:103F70002196FE0164916623B9F7E9E0F4E06491CB
:103F8000EF0107C08AEB9DE00E94910F2196FE0190
:103F900064916623B9F74091ED055091EE0560916B
:103FA000EF057091F0058AEB9DE022E00E94F17927
:103FB000E6E0F4E06491EF0107C08AEB9DE00E9427
:103FC000910F2196FE0164916623B9F74091050691
:103FD0005091060660910706709108068AEB9DE0F5
:103FE00022E00E94F179E3E0F4E06491EF0107C080
:103FF0008AEB9DE00E94910F2196FE016491662359
:10400000B9F74091B9055091BA056091BB0570911F
:10401000BC058AEB9DE02AE000E00E945579E0E0D3
:10402000F4E06491EF0107C08AEB9DE00E94910FDC
:104030002196FE0164916623B9F74091F9055091EC
:10404000FA056091FB057091FC058AEB9DE022E08A
:104050000E94F179EDEFF3E06491EF0107C08AEB84
:104060009DE00E94910F2196FE0164916623B9F7AD
:104070004091FD055091FE056091FF05709100068D
:104080008AEB9DE022E00E94F179EAEFF3E064918F
:10409000EF0107C08AEB9DE00E94910F2196FE017F
:1040A00064916623B9F74091010650910206609130
:1040B0000306709104068AEB9DE022E00E94F179EC
:1040C0008AEB9DE06EE371E00E9449188AEB9DE067
:1040D0006AE00E94910FF7016491C9E8D2E007C03D
:1040E0008AEB9DE00E94910F2196FE016491662368
:1040F000B9F7ECEEF3E06491EF0107C08AEB9DE0C5
:104100000E94910F2196FE0164916623B9F78AEB14
:104110009DE06AE00E94910FF7016491C9E8D2E046
:1041200007C08AEB9DE00E94910F2196FE016491E9
:104130006623B9F7E2EEF3E06491EF0107C08AEB82
:104140009DE00E94910F2196FE0164916623B9F7CC
:1041500040913E0250913F026091400270914102B5
:104160008AEB9DE022E00E94F179EFEDF3E06491AB
:10417000EF0107C08AEB9DE00E94910F2196FE019E
:1041800064916623B9F76091420270914302809175
:104190004402909145022DEB37E346E05EE30E9436
:1041A000667DAB01BC018AEB9DE022E00E94F179C3
:1041B000ECEDF3E06491EF0107C08AEB9DE00E9413
:1041C000910F2196FE0164916623B9F76091460232
:1041D0007091470280914802909149022DEB37E39C
:1041E00046E05EE30E943F80AB01BC018AEB9DE0AC
:1041F00022E00E94F1798AEB9DE06EE371E00E947B
:1042000049188AEB9DE06AE00E94910FDF91CF91FF
:104210000F91FF90EF9008950F931F93DF93CF932B
:10422000CDB7DEB7E8970FB6F894DEBF0FBECDBFAF
:10423000682F80913A0190913B01A0913C01B0918F
:104240003D018D839E83AF83B887FE01319624E6BE
:1042500030E0AE014C5F5F4FF999FECF32BD21BD1A
:10426000F89A80B580832F5F3F4FE417F50711F070
:104270003196F2CF662309F035C1CE010596BE0115
:104280006F5F7F4F43E050E00E94C70C009709F03A
:1042900029C1EDECF5E028E630E0F999FECF32BD1A
:1042A00021BDF89A80B580832F5F3F4F85E0EC3DBC
:1042B000F80711F03196F1CFEDEBF5E028E730E0AB
:1042C000F999FECF32BD21BDF89A80B580832F5F6A
:1042D0003F4F85E0EC3CF80711F03196F1CFEDED62
:1042E000F5E028E830E0F999FECF32BD21BDF89A1B
:1042F00080B580832F5F3F4F85E0EC3EF80711F0DB
:104300003196F1CFE1EFF5E028E930E0F999FECF01
:1043100032BD21BDF89A80B580832F5F3F4F85E085
:10432000E43FF80711F03196F1CFE5EFF5E02CE925
:1043300030E0F999FECF32BD21BDF89A80B5808377
:104340002F5F3F4F85E0E83FF80711F03196F1CF3E
:10435000EDEEF5E020EA30E0F999FECF32BD21BD67
:10436000F89A80B580832F5F3F4F85E0E03FF807E4
:1043700011F03196F1CFE5E0F6E024EA30E0F9996A
:10438000FECF32BD21BDF89A80B580832F5F3F4FAD
:1043900086E0E830F80711F03196F1CFE9EBF5E06F
:1043A00028EA30E0F999FECF32BD21BDF89A80B5F8
:1043B00080832F5F3F4F85E0EC3BF80711F031968B
:1043C000F1CFE9EFF5E02CEA30E0F999FECF32BD0C
:1043D00021BDF89A80B580832F5F3F4F85E0EC3F89
:1043E000F80711F03196F1CFEDEFF5E020EB30E07A
:1043F000F999FECF32BD21BDF89A80B580832F5F39
:104400003F4F86E0E030F80711F03196F1CFE1E060
:10441000F6E024EB30E0F999FECF32BD21BDF89AE9
:1044200080B580832F5F3F4F86E0E430F80711F0BE
:104430003196F1CFEEE3F2E028EB30E0F999FECFD0
:1044400032BD21BDF89A80B580832F5F3F4F82E057
:10445000E134F80711F03196F1CFE2E4F2E02CEB11
:1044600030E0F999FECF32BD21BDF89A80B5808346
:104470002F5F3F4F82E0E534F80711F03196F1CF1E
:10448000E6E4F2E020EC30E0F999FECF32BD21BD48
:10449000F89A80B580832F5F3F4F82E0E934F807B8
:1044A00011F03196F1CFE9E8F2E064918F0108C094
:1044B0008AEB9DE00E94910F0F5F1F4FF8016491FE
:1044C0006623B1F7E1ECF3E064918F0108C08AEB59
:1044D0009DE00E94910F0F5F1F4FF80164916623CA
:1044E000B1F718C1DE011996EAEBF2E080E1019024
:1044F0000D928150E1F7DE015996EAEAF2E080E19F
:1045000001900D928150E1F7DE019996EAE9F2E01F
:1045100080E101900D928150E1F789859A85AB8504
:10452000BC858093CD059093CE05A093CF05B09325
:10453000D005898D9A8DAB8DBC8D8093BD059093F0
:10454000BE05A093BF05B093C00589A59AA5ABA5EC
:10455000BCA58093DD059093DE05A093DF05B093A5
:10456000E0058D859E85AF85B8898093D1059093B0
:10457000D205A093D305B093D4058D8D9E8DAF8DBC
:10458000B8A18093C1059093C205A093C305B093D1
:10459000C4058DA59EA5AFA5B8A98093E10590930C
:1045A000E205A093E305B093E40589899A89AB8974
:1045B000BC898093D5059093D605A093D705B09379
:1045C000D80589A19AA1ABA1BCA18093C505909300
:1045D000C605A093C705B093C80589A99AA9ABA938
:1045E000BCA98093E5059093E605A093E705B093F9
:1045F000E8058D899E89AF89B88D8093D905909300
:10460000DA05A093DB05B093DC058DA19EA1AFA1D7
:10461000B8A58093C9059093CA05A093CB05B09324
:10462000CC058DA99EA9AFA9B8AD8093E90590935B
:10463000EA05A093EB05B093EC0580E090E8ABEBC6
:10464000B4E48093F1059093F205A093F305B09341
:10465000F4058093F5059093F605A093F705B093C4
:10466000F80520E030E040E050E02093ED05309385
:10467000EE054093EF055093F00580E29EE4A0E044
:10468000B0E08093B9059093BA05A093BB05B093B1
:10469000BC05209305063093060640930706509309
:1046A000080680E090E0A0EAB1E48093F9059093D9
:1046B000FA05A093FB05B093FC058DEC9CECACECEB
:1046C000BEE38093FD059093FE05A093FF05B09394
:1046D000000680E090E0A0EAB0E4809301069093A9
:1046E0000206A0930306B0930406E9E8F2E06491A1
:1046F0008F0108C08AEB9DE00E94910F0F5F1F4F52
:10470000F80164916623B1F78AEB9DE06FE371E0F5
:104710000E9449188AEB9DE06AE00E94910F94D9AB
:10472000E8960FB6F894DEBF0FBECDBFCF91DF91F4
:104730001F910F9108958091220490912304019676
:1047400060E070E04AE050E00C944D0B8091220450
:1047500090912304019660E070E00C94F009AF9210
:10476000BF92CF92DF92EF92FF920F931F93CF935E
:10477000DF93ADECEA2EA3E0FA2ECFEFD3E000E01A
:1047800010E0F801E45AFD4F80813DD9882331F1D2
:10479000DDDF5B016C01F801EA53FC4F8081882367
:1047A00011F061E002C060910F0470E0882777FD8E
:1047B0008095982F0E94017EF701208131814281EE
:1047C00053810E943F809B01AC01C601B5010E944C
:1047D000867C688379838A839B8309C0F701808103
:1047E0009181A281B38188839983AA83BB830F5F60
:1047F0001F4F84E090E0E80EF91E24960430110566
:1048000009F0BFCF86E4FFD88823D9F09FDF7B0172
:104810008C016093100470931104809312049093A0
:10482000130420E030E040E050E00E946D7F181655
:1048300044F4E0923402F092350200933602109371
:104840003702DF91CF911F910F91FF90EF90DF9092
:10485000CF90BF90AF90089582DF89E4D4D88823A9
:1048600049F074DF6093F3037093F4038093F503CE
:104870009093F6038AE4C7D8882349F067DF6093F2
:10488000F7037093F8038093F9039093FA03089564
:104890002F923F924F925F926F927F928F929F9250
:1048A000AF92BF92CF92DF92EF92FF920F931F933E
:1048B000DF93CF93CDB7DEB7A1970FB6F894DEBFE5
:1048C0000FBECDBF87E49FD8882309F4C5C43EDF5F
:1048D0000E94CE7D6430710591F16530710554F40C
:1048E0006230710519F1633071051CF57723CCF442
:1048F0000C94D4336A35710509F44DC46B357105D8
:1049000034F46C31710511F00C94D43370C06B35F4
:10491000710509F444C46C35710511F00C94D4335D
:1049200043C41DDF0E94F21B0C94073495DF81E025
:1049300002C092DF80E00E942B1B0C94073480E5BC
:1049400062D8882321F4EE24FF24870105C0FEDE0F
:104950000E94D37D7B018C0183E555D8882359F0D3
:10496000F5DE20E030E04AE754E40E943F800E94F8
:10497000D37D7B018C010E940F610FB6F894A0904B
:10498000B10DB090B20DC090B30DD090B40D0FBE6C
:10499000AE0CBF1CC01ED11E0FB6F8948091B10D95
:1049A0009091B20DA091B30DB091B40D0FBE809354
:1049B000EB039093EC03A093ED03B093EE0305C0DB
:1049C0000E948E6C81E00E94C31A0FB6F894809109
:1049D000B10D9091B20DA091B30DB091B40D0FBE79
:1049E0008A159B05AC05BD0558F30C94D433809112
:1049F000340290913502A0913602B0913702809333
:104A00001E0490931F04A0932004B093210480916E
:104A10002C0290912D029093CB038093CA0384E6DD
:104A200090E090932D0280932C020FB6F894809121
:104A3000B10D9091B20DA091B30DB091B40D0FBE18
:104A40008093EB039093EC03A093ED03B093EE03FC
:104A500081E00E943F608091CD039091CE03A091B0
:104A6000CF03B091D0038093FF0390930004A093F1
:104A70000104B09302048091D1039091D203A091DC
:104A8000D303B091D4038093030490930404A093C0
:104A90000504B09306048091D5039091D603A091AC
:104AA000D703B091D8038093070490930804A09390
:104AB0000904B0930A048091D9039091DA03A0917C
:104AC000DB03B091DC0380930B0490930C04A09360
:104AD0000D04B0930E0480E090E0A0E0B0E080937D
:104AE000340290933502A0933602B093370288E5E2
:104AF0000E94031D882361F489E50E94031D882319
:104B000039F48AE50E94031D882311F481E001C075
:104B100080E080933802882331F488E50E94031DE9
:104B2000882309F4DAC00F2EF0E08F2EF0E09F2EDC
:104B3000F0E0AF2EF0E0BF2EF02D8092CD039092EA
:104B4000CE03A092CF03B092D0038DEC93E061ED41
:104B500073E045ED53E029ED33E00E94D13E80E063
:104B600090ECA9E9B3EC8093FF0390930004A09329
:104B70000104B093020460911C0270911D028091A7
:104B80001E0290911F02609334027093350280934D
:104B900036029093370220E030E040E752E40E9472
:104BA000667D7B018C018FEF93E063E074E047E06A
:104BB00054E02BE034E0A9EECA2EA3E0DA2E0E94E6
:104BC000B5430E940F618092CD039092CE03A092D4
:104BD000CF03B092D0038DEC93E061ED73E045ED2F
:104BE00053E029ED33E00E94D13E80E090E0A0EA5E
:104BF000B0E48093FF0390930004A0930104B0936A
:104C000002046091340270913502809136029091D5
:104C1000370220E030E040E752E40E94667D7B01ED
:104C20008C018FEF93E063E074E047E054E02BE009
:104C300034E00E94B5430E940F6180E090E0A0E262
:104C4000B1EC8093FF0390930004A0930104B09310
:104C5000020460911C0270911D0280911E029091CD
:104C60001F0220E030E040E05FE30E943F8060935D
:104C7000340270933502809336029093370220E01D
:104C800030E040E752E40E94667D7B018C018FEFAB
:104C900093E063E074E047E054E02BE034E00E94EE
:104CA000B5430E940F618092CD039092CE03A092F3
:104CB000CF03B092D0038092FF0390920004A092A1
:104CC0000104B09202048092340290923502A092C4
:104CD0003602B09237020E943860809138028823F1
:104CE00031F489E50E94031D882309F4DAC00F2EF0
:104CF000F0E08F2EF0E09F2EF0E0AF2EF0E0BF2E20
:104D0000F02D8092D1039092D203A092D303B0925F
:104D1000D4038DEC93E061ED73E045ED53E029EDB4
:104D200033E00E94D13E80E090E4A1EAB3EC8093AE
:104D3000030490930404A0930504B09306046091C7
:104D400020027091210280912202909123026093AF
:104D5000340270933502809336029093370220E03C
:104D600030E040E752E40E94667D7B018C018FEFCA
:104D700093E063E074E047E054E02BE034E0F9EEC8
:104D8000CF2EF3E0DF2E0E94B5430E940F61809288
:104D9000D1039092D203A092D303B092D4038DECAE
:104DA00093E061ED73E045ED53E029ED33E00E94BF
:104DB000D13E80E090E0A0EAB0E4809303049093B9
:104DC0000404A0930504B09306046091340270912A
:104DD0003502809136029091370220E030E040E7C2
:104DE00052E40E94667D7B018C018FEF93E063E0CB
:104DF00074E047E054E02BE034E00E94B5430E94A9
:104E00000F6180E090E0A0E2B1EC80930304909306
:104E10000404A0930504B0930604609120027091ED
:104E20002102809122029091230220E030E040E0B4
:104E30005FE30E943F806093340270933502809359
:104E400036029093370220E030E040E752E40E94BF
:104E5000667D7B018C018FEF93E063E074E047E0B7
:104E600054E02BE034E00E94B5430E940F61809231
:104E7000D1039092D203A092D303B092D403809234
:104E8000030490920404A0920504B0920604809258
:104E9000340290923502A0923602B09237020E94FC
:104EA000386080913802882331F48AE50E94031D1E
:104EB000882309F4DAC00F2EF0E08F2EF0E09F2E49
:104EC000F0E0AF2EF0E0BF2EF02D8092D50390924F
:104ED000D603A092D703B092D8038DEC93E061ED96
:104EE00073E045ED53E029ED33E00E94D13E80E0D0
:104EF00090E0A5EAB3EC8093070490930804A09394
:104F00000904B0930A0460912402709125028091F3
:104F100026029091270260933402709335028093A9
:104F200036029093370220E030E040E752E40E94DE
:104F3000667D7B018C018FEF93E063E074E047E0D6
:104F400054E02BE034E0E9EECE2EE3E0DE2E0E94CA
:104F5000B5430E940F618092D5039092D603A09230
:104F6000D703B092D8038DEC93E061ED73E045ED8B
:104F700053E029ED33E00E94D13E80E090E0A0E8CC
:104F8000BFE38093070490930804A0930904B093AF
:104F90000A0460913402709135028091360290913A
:104FA000370220E030E040E752E40E94667D7B015A
:104FB0008C018FEF93E063E074E047E054E02BE076
:104FC00034E00E94B5430E940F6180E090E0A0E0D1
:104FD000B0EC8093070490930804A0930904B09365
:104FE0000A0460912402709125028091260290911A
:104FF000270220E030E040E05FE30E943F806093C2
:10500000340270933502809336029093370220E089
:1050100030E040E752E40E94667D7B018C018FEF17
:1050200093E063E074E047E054E02BE034E00E945A
:10503000B5430E940F618092D5039092D603A0924F
:10504000D703B092D8038092070490920804A092EC
:105050000904B0920A048092340290923502A09220
:105060003602B09237020E94386088E50E94031D24
:105070008823C9F060DB611571058105910599F000
:1050800065DB2091DD033091DE034091DF03509119
:10509000E0030E94867C6093CD037093CE038093DF
:1050A000CF039093D00389E50E94031D8823C9F0A4
:1050B00042DB611571058105910599F047DB20916F
:1050C000E1033091E2034091E3035091E4030E9435
:1050D000867C6093D1037093D2038093D303909323
:1050E000D4038AE50E94031D8823C9F024DB6115DF
:1050F00071058105910599F029DB2091E503309137
:10510000E6034091E7035091E8030E94867C609398
:10511000D5037093D6038093D7039093D8038DEC77
:1051200093E061ED73E045ED53E029ED33E00E943B
:10513000D13E80E00E943F6080911E0490911F0448
:10514000A0912004B0912104809334029093350201
:10515000A0933602B09337028091CA039091CB039B
:1051600090932D0280932C020FB6F8948091B10D8C
:105170009091B20DA091B30DB091B40D0FBE80937C
:10518000EB039093EC03A093ED03B093EE030E9426
:1051900038600C94D43310920F040C94D43381E013
:1051A00080930F040C94D43385E40E94031D88235C
:1051B00011F40E940F617DECE72E73E0F72E6DED88
:1051C000C62E63E0D62E00E010E0F801E45AFD4F51
:1051D00080810E94031D882389F1B8DAF6012081BD
:1051E0003181428153810E94867CF7016083718303
:1051F00082839383033059F4A9DAF70160837183C2
:105200008283938389ED93E00E94B43E17C09EDAB7
:10521000F60120813181428153810E94867CF70111
:1052200060837183828393838DEC93E061ED73E0FF
:1052300045ED53E029ED33E00E94D13E0F5F1F4F53
:1052400044E050E0E40EF51EC40ED51E04301105F6
:1052500009F0BBCF0C94D4338DE40E94031D882346
:1052600011F40C94383372DA0E94CE7D6A367105DF
:1052700009F427C66B3671050CF079C06C317105E5
:1052800009F49BC16D317105CCF56631710509F4E6
:1052900033C167317105BCF46231710509F443C64D
:1052A0006331710534F46131710511F00C94D4331C
:1052B000EEC06431710509F4F0C06531710511F07B
:1052C0000C94D43313C16931710509F44CC16A31AE
:1052D000710554F46731710509F414C16831710521
:1052E00011F00C94D43326C16A31710509F441C11F
:1052F0006B31710511F00C94D43359C163357105CC
:1053000009F40DC664357105BCF46F31710509F4FB
:10531000D5C16032710534F46E31710511F00C9411
:10532000D43387C16A32710509F443C2623571050D
:1053300011F00C94D433F0C56C35710509F452C6E4
:105340006D35710554F46435710509F4ECC56535A6
:10535000710511F00C94D4332FC66836710509F429
:1053600067C26936710511F00C94D433C0C26D3C2C
:10537000710511F40C94C0316E3C7105CCF56737A2
:10538000710509F436C768377105BCF46D367105CF
:1053900009F439C36E36710534F46B36710511F0BA
:1053A0000C94D433B6C56237710509F449C6633726
:1053B000710511F00C94D43333C6693C710509F4BE
:1053C00067C76A3C710554F46C38710509F47CC2F6
:1053D0006E3B710511F00C94D433BFC46B3C710566
:1053E00009F490C76C3C710511F00C94D433A8C734
:1053F00051E06F32750711F40C941A3381E0603379
:1054000078070CF56D3D710511F40C944E326E3D2C
:10541000710564F46E3C710511F40C941E326C3D00
:10542000710511F00C94D4330C943C3291E06D3240
:10543000790711F40C945D326E52714011F00C94A6
:10544000D4330C941633F1E0653F7F0711F40C94CC
:105450002F3321E0663F72076CF441E06039740736
:1054600011F40C942933645F714011F00C94D4331F
:105470000C942C3381E0663F780711F40C9431339F
:10548000675F714011F00C94D4330C9435337798E6
:105490007698479843980C94D433E1EAF3E064910A
:1054A0008F0108C08AEB9DE00E94910F0F5F1F4F94
:1054B000F80164916623B1F78AEB9DE06AE00E94EF
:1054C000910F8CEE92E00E940118E3E9F3E0649101
:1054D0008F0108C08AEB9DE00E94910F0F5F1F4F64
:1054E000F80164916623B1F70C94CF338CEE92E00F
:1054F0000E9446140C94D4338CEE92E00E94FE0F6E
:105500000C94D433809122049091230404966AE28F
:1055100070E00E94B50CFC01009711F031971082E9
:1055200060912204709123046C5F7F4F8CEE92E0B7
:1055300041E07BC08CEE92E00E9402100FB6F8941E
:105540008091B10D9091B20DA091B30DB091B40DB9
:105550000FBE8093240490932504A0932604B09357
:1055600027040C94D4338CEE92E00E9409100C9422
:10557000D4338091EE02882311F40C94D43383E564
:105580000E94031D882311F40C94D433D4D8AB01AA
:10559000BC014093BB035093BC038093BD03709345
:1055A000BE0388E993E00E94ED520C94D4338CEE54
:1055B00092E00E94B0100C94D43380912204909118
:1055C000230404966AE270E00E94B50C8C010097F7
:1055D00019F1209114043091150480E690E0AC019B
:1055E000249FC001259F900D349F900D1124885D4C
:1055F0009B4F6EE470E00E94B50C60E270E00E9488
:10560000B50C9C012F5F3F4F30932304209322045D
:1056100001501040F801108260912204709123041F
:105620006C5F7F4F8CEE92E040E00E940F110C9473
:10563000D4338091EE02882311F40C94D4338CEE91
:1056400092E00E942B1080912204909123040496F2
:105650006AE270E00E94B50C8C01009719F120916C
:1056600014043091150480E690E0AC01249FC00141
:10567000259F900D349F900D1124885D9B4F6EE403
:1056800070E00E94B50C60E270E00E94B50C9C01D5
:105690002F5F3F4F3093230420932204015010408A
:1056A000F801108260912204709123046C5F7F4F97
:1056B0008CEE92E00E9400130C94D4330FB6F89451
:1056C0006091B10D7091B20D8091B30D9091B40DB8
:1056D0000FBE6093A8057093A9058093AA059093C7
:1056E000AB0520912404309125044091260450916B
:1056F0002704621B730B840B950B28EE33E040E00C
:1057000050E00E944381F22EE32ED42EC52E4DB7D9
:105710005EB7485050400FB6F8945EBF0FBE4DBF05
:105720000DB71EB70F5F1F4FCE010196EDB7FEB745
:105730009283818387E591E0F801938382836F2DC3
:105740007E2D8D2D9C2D2CE330E040E050E00E941A
:105750004381F801358324836F2D7E2D8D2D9C2D63
:105760002CE330E040E050E00E944381F801778371
:1057700066830E94FE0CE9E8F2E064918F014DB768
:105780005EB7485F5F4F0FB6F8945EBF0FBE4DBF68
:1057900008C08AEB9DE00E94910F0F5F1F4FF80138
:1057A00064916623B1F78AEB9DE0BE016F5F7F4F86
:1057B00092C783E50E94031D882309F4F5C70E9460
:1057C000A6237B018C0180E50E94031D882309F438
:1057D000EBC7C801B7010E94CE7D6B0177FF01C006
:1057E000E3C76F3F710511F00CF0DEC70E94A623DE
:1057F0000E94CE7D7B01E0E6F2E0808191818E15F2
:105800009F0509F4D1C7329622E0E43DF207A9F7DB
:10581000F7FE01C0C9C78E2D0E948F74EE2DF0E0F7
:105820000C2C0E94A0748E2DB6010E944A76BCC733
:105830008091E9038093AC0584E50E94031D8823D1
:10584000E1F00E94A6230E94D37D6093AC056623FD
:10585000A1F0E9E8F2E064918F0108C08AEB9DE0D5
:105860000E94910F0F5F1F4FF80164916623B1F7FB
:105870008AEB9DE066E671E0EAC083E50E94031DC5
:105880008823F9F00E94A6236B017C01B090AC053F
:105890000B2D10E00E94CE7DDC01CB016B2D0E9410
:1058A000446E000F111FF801ED59F24F9183808370
:1058B000000F111F0559124FF801C082D182E282F8
:1058C000F3820E94916970C783E50E94031D8823BB
:1058D00009F46AC70E94A6230E94CE7DDC01CB0199
:1058E0000E947D689093660D8093650D5DC78091E1
:1058F000E9038093AC0584E50E94031D8823E1F051
:105900000E94A6230E94D37D6093AC056623A1F07C
:10591000E9E8F2E064918F0108C08AEB9DE00E9403
:10592000910F0F5F1F4FF80164916623B1F78AEB67
:105930009DE06DE771E08BC0EDE8F3E064918F01CD
:1059400008C08AEB9DE00E94910F0F5F1F4FF80186
:1059500064916623B1F76091AC05E62FF0E0EE0F9D
:10596000FF1FE959F24F808191810E946A6BAB0160
:10597000BC018AEB9DE022E00E94F179E9E8F3E0C6
:1059800064918F0108C08AEB9DE00E94910F0F5F28
:105990001F4FF80164916623B1F78091690D9091D2
:1059A0006A0D0E94DE68AB01BC018AEB9DE022E03B
:1059B0000E94F179E5E8F3E064918F0108C08AEB79
:1059C0009DE00E94910F0F5F1F4FF80164916623C5
:1059D000B1F78091AC0590E00E947768AC01662732
:1059E00057FD6095762F8AEB9DE00E94E0798AEB67
:1059F0009DE06EE371E00E9449188AEB9DE06AE049
:105A00000E94910F04C78091E9038093AC0584E55F
:105A10000E94031D882351F10E94A6230E94D37D7A
:105A20006093AC05662311F1E9E8F2E064918F011F
:105A300008C08AEB9DE00E94910F0F5F1F4FF80195
:105A400064916623B1F78AEB9DE064E971E00E94FE
:105A50004918E091BA0DF091BB0D0190F081E02D55
:105A60008AEB9DE06091AC05099599C683E50E949B
:105A7000031D8823F9F00E94A6236B017C01B090DE
:105A8000AC050B2D10E00E94CE7DDC01CB016B2D0F
:105A90000E94446E000F111FF801ED59F24F9183DF
:105AA0008083000F111F0559124FF801C082D18267
:105AB000E282F3820E9491690FB6F8946090B10D72
:105AC0007090B20D8090B30D9090B40D0FBEE09128
:105AD000AC05F0E0EE0FFF1FDF01AD59B24F2D9086
